{
  "contractName": "ERC20Burnable",
  "abi": [
    {
      "anonymous": false,
      "inputs": [
        {
          "indexed": true,
          "internalType": "address",
          "name": "owner",
          "type": "address"
        },
        {
          "indexed": true,
          "internalType": "address",
          "name": "spender",
          "type": "address"
        },
        {
          "indexed": false,
          "internalType": "uint256",
          "name": "value",
          "type": "uint256"
        }
      ],
      "name": "Approval",
      "type": "event"
    },
    {
      "anonymous": false,
      "inputs": [
        {
          "indexed": true,
          "internalType": "address",
          "name": "from",
          "type": "address"
        },
        {
          "indexed": true,
          "internalType": "address",
          "name": "to",
          "type": "address"
        },
        {
          "indexed": false,
          "internalType": "uint256",
          "name": "value",
          "type": "uint256"
        }
      ],
      "name": "Transfer",
      "type": "event"
    },
    {
      "constant": true,
      "inputs": [
        {
          "internalType": "address",
          "name": "owner",
          "type": "address"
        },
        {
          "internalType": "address",
          "name": "spender",
          "type": "address"
        }
      ],
      "name": "allowance",
      "outputs": [
        {
          "internalType": "uint256",
          "name": "",
          "type": "uint256"
        }
      ],
      "payable": false,
      "stateMutability": "view",
      "type": "function"
    },
    {
      "constant": false,
      "inputs": [
        {
          "internalType": "address",
          "name": "spender",
          "type": "address"
        },
        {
          "internalType": "uint256",
          "name": "amount",
          "type": "uint256"
        }
      ],
      "name": "approve",
      "outputs": [
        {
          "internalType": "bool",
          "name": "",
          "type": "bool"
        }
      ],
      "payable": false,
      "stateMutability": "nonpayable",
      "type": "function"
    },
    {
      "constant": true,
      "inputs": [
        {
          "internalType": "address",
          "name": "account",
          "type": "address"
        }
      ],
      "name": "balanceOf",
      "outputs": [
        {
          "internalType": "uint256",
          "name": "",
          "type": "uint256"
        }
      ],
      "payable": false,
      "stateMutability": "view",
      "type": "function"
    },
    {
      "constant": false,
      "inputs": [
        {
          "internalType": "address",
          "name": "spender",
          "type": "address"
        },
        {
          "internalType": "uint256",
          "name": "subtractedValue",
          "type": "uint256"
        }
      ],
      "name": "decreaseAllowance",
      "outputs": [
        {
          "internalType": "bool",
          "name": "",
          "type": "bool"
        }
      ],
      "payable": false,
      "stateMutability": "nonpayable",
      "type": "function"
    },
    {
      "constant": false,
      "inputs": [
        {
          "internalType": "address",
          "name": "spender",
          "type": "address"
        },
        {
          "internalType": "uint256",
          "name": "addedValue",
          "type": "uint256"
        }
      ],
      "name": "increaseAllowance",
      "outputs": [
        {
          "internalType": "bool",
          "name": "",
          "type": "bool"
        }
      ],
      "payable": false,
      "stateMutability": "nonpayable",
      "type": "function"
    },
    {
      "constant": true,
      "inputs": [],
      "name": "totalSupply",
      "outputs": [
        {
          "internalType": "uint256",
          "name": "",
          "type": "uint256"
        }
      ],
      "payable": false,
      "stateMutability": "view",
      "type": "function"
    },
    {
      "constant": false,
      "inputs": [
        {
          "internalType": "address",
          "name": "recipient",
          "type": "address"
        },
        {
          "internalType": "uint256",
          "name": "amount",
          "type": "uint256"
        }
      ],
      "name": "transfer",
      "outputs": [
        {
          "internalType": "bool",
          "name": "",
          "type": "bool"
        }
      ],
      "payable": false,
      "stateMutability": "nonpayable",
      "type": "function"
    },
    {
      "constant": false,
      "inputs": [
        {
          "internalType": "address",
          "name": "sender",
          "type": "address"
        },
        {
          "internalType": "address",
          "name": "recipient",
          "type": "address"
        },
        {
          "internalType": "uint256",
          "name": "amount",
          "type": "uint256"
        }
      ],
      "name": "transferFrom",
      "outputs": [
        {
          "internalType": "bool",
          "name": "",
          "type": "bool"
        }
      ],
      "payable": false,
      "stateMutability": "nonpayable",
      "type": "function"
    },
    {
      "constant": false,
      "inputs": [
        {
          "internalType": "uint256",
          "name": "amount",
          "type": "uint256"
        }
      ],
      "name": "burn",
      "outputs": [],
      "payable": false,
      "stateMutability": "nonpayable",
      "type": "function"
    },
    {
      "constant": false,
      "inputs": [
        {
          "internalType": "address",
          "name": "account",
          "type": "address"
        },
        {
          "internalType": "uint256",
          "name": "amount",
          "type": "uint256"
        }
      ],
      "name": "burnFrom",
      "outputs": [],
      "payable": false,
      "stateMutability": "nonpayable",
      "type": "function"
    }
  ],
  "bytecode": "0x6080604052610ad7806100136000396000f3fe608060405234801561001057600080fd5b50600436106100be5760003560e01c806370a0823111610076578063a457c2d71161005b578063a457c2d7146101f0578063a9059cbb1461021c578063dd62ed3e14610248576100be565b806370a082311461019e57806379cc6790146101c4576100be565b806323b872dd116100a757806323b872dd1461011d578063395093511461015357806342966c681461017f576100be565b8063095ea7b3146100c357806318160ddd14610103575b600080fd5b6100ef600480360360408110156100d957600080fd5b506001600160a01b038135169060200135610276565b604080519115158252519081900360200190f35b61010b610293565b60408051918252519081900360200190f35b6100ef6004803603606081101561013357600080fd5b506001600160a01b03813581169160208101359091169060400135610299565b6100ef6004803603604081101561016957600080fd5b506001600160a01b038135169060200135610326565b61019c6004803603602081101561019557600080fd5b503561037a565b005b61010b600480360360208110156101b457600080fd5b50356001600160a01b031661038e565b61019c600480360360408110156101da57600080fd5b506001600160a01b0381351690602001356103a9565b6100ef6004803603604081101561020657600080fd5b506001600160a01b0381351690602001356103b7565b6100ef6004803603604081101561023257600080fd5b506001600160a01b038135169060200135610425565b61010b6004803603604081101561025e57600080fd5b506001600160a01b0381358116916020013516610439565b600061028a610283610464565b8484610468565b50600192915050565b60025490565b60006102a6848484610554565b61031c846102b2610464565b610317856040518060600160405280602881526020016109c8602891396001600160a01b038a166000908152600160205260408120906102f0610464565b6001600160a01b03168152602081019190915260400160002054919063ffffffff6106b016565b610468565b5060019392505050565b600061028a610333610464565b846103178560016000610344610464565b6001600160a01b03908116825260208083019390935260409182016000908120918c16815292529020549063ffffffff61074716565b61038b610385610464565b826107a8565b50565b6001600160a01b031660009081526020819052604090205490565b6103b382826108a4565b5050565b600061028a6103c4610464565b8461031785604051806060016040528060258152602001610a7e60259139600160006103ee610464565b6001600160a01b03908116825260208083019390935260409182016000908120918d1681529252902054919063ffffffff6106b016565b600061028a610432610464565b8484610554565b6001600160a01b03918216600090815260016020908152604080832093909416825291909152205490565b3390565b6001600160a01b0383166104ad5760405162461bcd60e51b8152600401808060200182810382526024815260200180610a5a6024913960400191505060405180910390fd5b6001600160a01b0382166104f25760405162461bcd60e51b81526004018080602001828103825260228152602001806109806022913960400191505060405180910390fd5b6001600160a01b03808416600081815260016020908152604080832094871680845294825291829020859055815185815291517f8c5be1e5ebec7d5bd14f71427d1e84f3dd0314c0f7b2291e5b200ac8c7c3b9259281900390910190a3505050565b6001600160a01b0383166105995760405162461bcd60e51b8152600401808060200182810382526025815260200180610a356025913960400191505060405180910390fd5b6001600160a01b0382166105de5760405162461bcd60e51b815260040180806020018281038252602381526020018061093b6023913960400191505060405180910390fd5b610621816040518060600160405280602681526020016109a2602691396001600160a01b038616600090815260208190526040902054919063ffffffff6106b016565b6001600160a01b038085166000908152602081905260408082209390935590841681522054610656908263ffffffff61074716565b6001600160a01b038084166000818152602081815260409182902094909455805185815290519193928716927fddf252ad1be2c89b69c2b068fc378daa952ba7f163c4a11628f55a4df523b3ef92918290030190a3505050565b6000818484111561073f5760405162461bcd60e51b81526004018080602001828103825283818151815260200191508051906020019080838360005b838110156107045781810151838201526020016106ec565b50505050905090810190601f1680156107315780820380516001836020036101000a031916815260200191505b509250505060405180910390fd5b505050900390565b6000828201838110156107a1576040805162461bcd60e51b815260206004820152601b60248201527f536166654d6174683a206164646974696f6e206f766572666c6f770000000000604482015290519081900360640190fd5b9392505050565b6001600160a01b0382166107ed5760405162461bcd60e51b8152600401808060200182810382526021815260200180610a146021913960400191505060405180910390fd5b6108308160405180606001604052806022815260200161095e602291396001600160a01b038516600090815260208190526040902054919063ffffffff6106b016565b6001600160a01b03831660009081526020819052604090205560025461085c908263ffffffff6108f816565b6002556040805182815290516000916001600160a01b038516917fddf252ad1be2c89b69c2b068fc378daa952ba7f163c4a11628f55a4df523b3ef9181900360200190a35050565b6108ae82826107a8565b6103b3826108ba610464565b610317846040518060600160405280602481526020016109f0602491396001600160a01b0388166000908152600160205260408120906102f0610464565b60006107a183836040518060400160405280601e81526020017f536166654d6174683a207375627472616374696f6e206f766572666c6f7700008152506106b056fe45524332303a207472616e7366657220746f20746865207a65726f206164647265737345524332303a206275726e20616d6f756e7420657863656564732062616c616e636545524332303a20617070726f766520746f20746865207a65726f206164647265737345524332303a207472616e7366657220616d6f756e7420657863656564732062616c616e636545524332303a207472616e7366657220616d6f756e74206578636565647320616c6c6f77616e636545524332303a206275726e20616d6f756e74206578636565647320616c6c6f77616e636545524332303a206275726e2066726f6d20746865207a65726f206164647265737345524332303a207472616e736665722066726f6d20746865207a65726f206164647265737345524332303a20617070726f76652066726f6d20746865207a65726f206164647265737345524332303a2064656372656173656420616c6c6f77616e63652062656c6f77207a65726fa265627a7a723158207460c4c8d58c7ab0e6bd1e0188aa36daa67f47d0f7762abc1c4506a457aeac6864736f6c634300050c0032",
  "source": "pragma solidity ^0.5.0;\n\nimport \"../../GSN/Context.sol\";\nimport \"./ERC20.sol\";\n\n/**\n * @dev Extension of {ERC20} that allows token holders to destroy both their own\n * tokens and those that they have an allowance for, in a way that can be\n * recognized off-chain (via event analysis).\n */\ncontract ERC20Burnable is Context, ERC20 {\n    /**\n     * @dev Destroys `amount` tokens from the caller.\n     *\n     * See {ERC20-_burn}.\n     */\n    function burn(uint256 amount) public {\n        _burn(_msgSender(), amount);\n    }\n\n    /**\n     * @dev See {ERC20-_burnFrom}.\n     */\n    function burnFrom(address account, uint256 amount) public {\n        _burnFrom(account, amount);\n    }\n}\n",
  "sourcePath": "@openzeppelin/contracts/token/ERC20/ERC20Burnable.sol",
  "compiler": {
    "name": "solc",
    "version": "0.5.12+commit.7709ece9.Emscripten.clang",
    "optimizer": true,
    "runs": 999
  },
  "schemaVersion": "2.2.4",
  "updatedAt": "2020-03-09T10:54:12.663Z"
}