{
  "contractName": "MintyToken",
  "abi": [
    {
      "inputs": [
        {
          "internalType": "string",
          "name": "name",
          "type": "string"
        },
        {
          "internalType": "string",
          "name": "symbol",
          "type": "string"
        },
        {
          "internalType": "uint8",
          "name": "decimals",
          "type": "uint8"
        }
      ],
      "payable": false,
      "stateMutability": "nonpayable",
      "type": "constructor"
    },
    {
      "anonymous": false,
      "inputs": [
        {
          "indexed": true,
          "internalType": "address",
          "name": "owner",
          "type": "address"
        },
        {
          "indexed": true,
          "internalType": "address",
          "name": "spender",
          "type": "address"
        },
        {
          "indexed": false,
          "internalType": "uint256",
          "name": "value",
          "type": "uint256"
        }
      ],
      "name": "Approval",
      "type": "event"
    },
    {
      "anonymous": false,
      "inputs": [
        {
          "indexed": true,
          "internalType": "address",
          "name": "account",
          "type": "address"
        }
      ],
      "name": "MinterAdded",
      "type": "event"
    },
    {
      "anonymous": false,
      "inputs": [
        {
          "indexed": true,
          "internalType": "address",
          "name": "account",
          "type": "address"
        }
      ],
      "name": "MinterRemoved",
      "type": "event"
    },
    {
      "anonymous": false,
      "inputs": [
        {
          "indexed": false,
          "internalType": "address",
          "name": "account",
          "type": "address"
        }
      ],
      "name": "Paused",
      "type": "event"
    },
    {
      "anonymous": false,
      "inputs": [
        {
          "indexed": true,
          "internalType": "address",
          "name": "account",
          "type": "address"
        }
      ],
      "name": "PauserAdded",
      "type": "event"
    },
    {
      "anonymous": false,
      "inputs": [
        {
          "indexed": true,
          "internalType": "address",
          "name": "account",
          "type": "address"
        }
      ],
      "name": "PauserRemoved",
      "type": "event"
    },
    {
      "anonymous": false,
      "inputs": [
        {
          "indexed": true,
          "internalType": "address",
          "name": "from",
          "type": "address"
        },
        {
          "indexed": true,
          "internalType": "address",
          "name": "to",
          "type": "address"
        },
        {
          "indexed": false,
          "internalType": "uint256",
          "name": "value",
          "type": "uint256"
        }
      ],
      "name": "Transfer",
      "type": "event"
    },
    {
      "anonymous": false,
      "inputs": [
        {
          "indexed": false,
          "internalType": "address",
          "name": "account",
          "type": "address"
        }
      ],
      "name": "Unpaused",
      "type": "event"
    },
    {
      "constant": false,
      "inputs": [
        {
          "internalType": "address",
          "name": "account",
          "type": "address"
        }
      ],
      "name": "addMinter",
      "outputs": [],
      "payable": false,
      "stateMutability": "nonpayable",
      "type": "function"
    },
    {
      "constant": false,
      "inputs": [
        {
          "internalType": "address",
          "name": "account",
          "type": "address"
        }
      ],
      "name": "addPauser",
      "outputs": [],
      "payable": false,
      "stateMutability": "nonpayable",
      "type": "function"
    },
    {
      "constant": true,
      "inputs": [
        {
          "internalType": "address",
          "name": "owner",
          "type": "address"
        },
        {
          "internalType": "address",
          "name": "spender",
          "type": "address"
        }
      ],
      "name": "allowance",
      "outputs": [
        {
          "internalType": "uint256",
          "name": "",
          "type": "uint256"
        }
      ],
      "payable": false,
      "stateMutability": "view",
      "type": "function"
    },
    {
      "constant": false,
      "inputs": [
        {
          "internalType": "address",
          "name": "spender",
          "type": "address"
        },
        {
          "internalType": "uint256",
          "name": "value",
          "type": "uint256"
        }
      ],
      "name": "approve",
      "outputs": [
        {
          "internalType": "bool",
          "name": "",
          "type": "bool"
        }
      ],
      "payable": false,
      "stateMutability": "nonpayable",
      "type": "function"
    },
    {
      "constant": true,
      "inputs": [
        {
          "internalType": "address",
          "name": "account",
          "type": "address"
        }
      ],
      "name": "balanceOf",
      "outputs": [
        {
          "internalType": "uint256",
          "name": "",
          "type": "uint256"
        }
      ],
      "payable": false,
      "stateMutability": "view",
      "type": "function"
    },
    {
      "constant": false,
      "inputs": [
        {
          "internalType": "uint256",
          "name": "amount",
          "type": "uint256"
        }
      ],
      "name": "burn",
      "outputs": [],
      "payable": false,
      "stateMutability": "nonpayable",
      "type": "function"
    },
    {
      "constant": false,
      "inputs": [
        {
          "internalType": "address",
          "name": "account",
          "type": "address"
        },
        {
          "internalType": "uint256",
          "name": "amount",
          "type": "uint256"
        }
      ],
      "name": "burnFrom",
      "outputs": [],
      "payable": false,
      "stateMutability": "nonpayable",
      "type": "function"
    },
    {
      "constant": true,
      "inputs": [],
      "name": "decimals",
      "outputs": [
        {
          "internalType": "uint8",
          "name": "",
          "type": "uint8"
        }
      ],
      "payable": false,
      "stateMutability": "view",
      "type": "function"
    },
    {
      "constant": false,
      "inputs": [
        {
          "internalType": "address",
          "name": "spender",
          "type": "address"
        },
        {
          "internalType": "uint256",
          "name": "subtractedValue",
          "type": "uint256"
        }
      ],
      "name": "decreaseAllowance",
      "outputs": [
        {
          "internalType": "bool",
          "name": "",
          "type": "bool"
        }
      ],
      "payable": false,
      "stateMutability": "nonpayable",
      "type": "function"
    },
    {
      "constant": false,
      "inputs": [
        {
          "internalType": "address",
          "name": "spender",
          "type": "address"
        },
        {
          "internalType": "uint256",
          "name": "addedValue",
          "type": "uint256"
        }
      ],
      "name": "increaseAllowance",
      "outputs": [
        {
          "internalType": "bool",
          "name": "",
          "type": "bool"
        }
      ],
      "payable": false,
      "stateMutability": "nonpayable",
      "type": "function"
    },
    {
      "constant": true,
      "inputs": [
        {
          "internalType": "address",
          "name": "account",
          "type": "address"
        }
      ],
      "name": "isMinter",
      "outputs": [
        {
          "internalType": "bool",
          "name": "",
          "type": "bool"
        }
      ],
      "payable": false,
      "stateMutability": "view",
      "type": "function"
    },
    {
      "constant": true,
      "inputs": [
        {
          "internalType": "address",
          "name": "account",
          "type": "address"
        }
      ],
      "name": "isPauser",
      "outputs": [
        {
          "internalType": "bool",
          "name": "",
          "type": "bool"
        }
      ],
      "payable": false,
      "stateMutability": "view",
      "type": "function"
    },
    {
      "constant": false,
      "inputs": [
        {
          "internalType": "address",
          "name": "account",
          "type": "address"
        },
        {
          "internalType": "uint256",
          "name": "amount",
          "type": "uint256"
        }
      ],
      "name": "mint",
      "outputs": [
        {
          "internalType": "bool",
          "name": "",
          "type": "bool"
        }
      ],
      "payable": false,
      "stateMutability": "nonpayable",
      "type": "function"
    },
    {
      "constant": true,
      "inputs": [],
      "name": "name",
      "outputs": [
        {
          "internalType": "string",
          "name": "",
          "type": "string"
        }
      ],
      "payable": false,
      "stateMutability": "view",
      "type": "function"
    },
    {
      "constant": false,
      "inputs": [],
      "name": "pause",
      "outputs": [],
      "payable": false,
      "stateMutability": "nonpayable",
      "type": "function"
    },
    {
      "constant": true,
      "inputs": [],
      "name": "paused",
      "outputs": [
        {
          "internalType": "bool",
          "name": "",
          "type": "bool"
        }
      ],
      "payable": false,
      "stateMutability": "view",
      "type": "function"
    },
    {
      "constant": false,
      "inputs": [],
      "name": "renounceMinter",
      "outputs": [],
      "payable": false,
      "stateMutability": "nonpayable",
      "type": "function"
    },
    {
      "constant": false,
      "inputs": [],
      "name": "renouncePauser",
      "outputs": [],
      "payable": false,
      "stateMutability": "nonpayable",
      "type": "function"
    },
    {
      "constant": true,
      "inputs": [],
      "name": "symbol",
      "outputs": [
        {
          "internalType": "string",
          "name": "",
          "type": "string"
        }
      ],
      "payable": false,
      "stateMutability": "view",
      "type": "function"
    },
    {
      "constant": true,
      "inputs": [],
      "name": "totalSupply",
      "outputs": [
        {
          "internalType": "uint256",
          "name": "",
          "type": "uint256"
        }
      ],
      "payable": false,
      "stateMutability": "view",
      "type": "function"
    },
    {
      "constant": false,
      "inputs": [
        {
          "internalType": "address",
          "name": "to",
          "type": "address"
        },
        {
          "internalType": "uint256",
          "name": "value",
          "type": "uint256"
        }
      ],
      "name": "transfer",
      "outputs": [
        {
          "internalType": "bool",
          "name": "",
          "type": "bool"
        }
      ],
      "payable": false,
      "stateMutability": "nonpayable",
      "type": "function"
    },
    {
      "constant": false,
      "inputs": [
        {
          "internalType": "address",
          "name": "from",
          "type": "address"
        },
        {
          "internalType": "address",
          "name": "to",
          "type": "address"
        },
        {
          "internalType": "uint256",
          "name": "value",
          "type": "uint256"
        }
      ],
      "name": "transferFrom",
      "outputs": [
        {
          "internalType": "bool",
          "name": "",
          "type": "bool"
        }
      ],
      "payable": false,
      "stateMutability": "nonpayable",
      "type": "function"
    },
    {
      "constant": false,
      "inputs": [],
      "name": "unpause",
      "outputs": [],
      "payable": false,
      "stateMutability": "nonpayable",
      "type": "function"
    }
  ],
  "bytecode": "0x60806040523480156200001157600080fd5b5060405162001be838038062001be8833981810160405260608110156200003757600080fd5b81019080805160405193929190846401000000008211156200005857600080fd5b9083019060208201858111156200006e57600080fd5b82516401000000008111828201881017156200008957600080fd5b82525081516020918201929091019080838360005b83811015620000b85781810151838201526020016200009e565b50505050905090810190601f168015620000e65780820380516001836020036101000a031916815260200191505b50604052602001805160405193929190846401000000008211156200010a57600080fd5b9083019060208201858111156200012057600080fd5b82516401000000008111828201881017156200013b57600080fd5b82525081516020918201929091019080838360005b838110156200016a57818101518382015260200162000150565b50505050905090810190601f168015620001985780820380516001836020036101000a031916815260200191505b50604052602090810151855190935085925084918491620001c0916003919086019062000417565b508151620001d690600490602085019062000417565b506005805460ff191660ff92909216919091179055506200020b9050620001fc62000244565b6001600160e01b036200024916565b62000231620002226001600160e01b036200024416565b6001600160e01b036200029b16565b50506008805460ff1916905550620004b9565b335b90565b62000264816006620002ed60201b6200143c1790919060201c565b6040516001600160a01b038216907f6ae172837ea30b801fbfcdd4108aa1d5bf8ff775444fd70256b44e6bf3dfc3f690600090a250565b620002b6816007620002ed60201b6200143c1790919060201c565b6040516001600160a01b038216907f6719d08c1888103bea251a4ed56406bd0c3e69723c8a1686e017e7bbe159b6f890600090a250565b6200030282826001600160e01b036200039416565b156200036f57604080517f08c379a000000000000000000000000000000000000000000000000000000000815260206004820152601f60248201527f526f6c65733a206163636f756e7420616c72656164792068617320726f6c6500604482015290519081900360640190fd5b6001600160a01b0316600090815260209190915260409020805460ff19166001179055565b60006001600160a01b038216620003f7576040517f08c379a000000000000000000000000000000000000000000000000000000000815260040180806020018281038252602281526020018062001bc66022913960400191505060405180910390fd5b506001600160a01b03166000908152602091909152604090205460ff1690565b828054600181600116156101000203166002900490600052602060002090601f016020900481019282601f106200045a57805160ff19168380011785556200048a565b828001600101855582156200048a579182015b828111156200048a5782518255916020019190600101906200046d565b50620004989291506200049c565b5090565b6200024691905b80821115620004985760008155600101620004a3565b6116fd80620004c96000396000f3fe608060405234801561001057600080fd5b506004361061018d5760003560e01c80636ef8d66d116100e3578063983b2d561161008c578063a9059cbb11610066578063a9059cbb14610454578063aa271e1a14610480578063dd62ed3e146104a65761018d565b8063983b2d56146103fa5780639865027514610420578063a457c2d7146104285761018d565b806382dc1ec4116100bd57806382dc1ec4146103c45780638456cb59146103ea57806395d89b41146103f25761018d565b80636ef8d66d1461036a57806370a082311461037257806379cc6790146103985761018d565b8063395093511161014557806342966c681161011f57806342966c681461031f57806346fbf68e1461033c5780635c975abb146103625761018d565b806339509351146102bd5780633f4ba83a146102e957806340c10f19146102f35761018d565b806318160ddd1161017657806318160ddd1461024f57806323b872dd14610269578063313ce5671461029f5761018d565b806306fdde0314610192578063095ea7b31461020f575b600080fd5b61019a6104d4565b6040805160208082528351818301528351919283929083019185019080838360005b838110156101d45781810151838201526020016101bc565b50505050905090810190601f1680156102015780820380516001836020036101000a031916815260200191505b509250505060405180910390f35b61023b6004803603604081101561022557600080fd5b506001600160a01b03813516906020013561056a565b604080519115158252519081900360200190f35b6102576105c9565b60408051918252519081900360200190f35b61023b6004803603606081101561027f57600080fd5b506001600160a01b038135811691602081013590911690604001356105cf565b6102a7610630565b6040805160ff9092168252519081900360200190f35b61023b600480360360408110156102d357600080fd5b506001600160a01b038135169060200135610639565b6102f1610691565b005b61023b6004803603604081101561030957600080fd5b506001600160a01b038135169060200135610783565b6102f16004803603602081101561033557600080fd5b50356107e3565b61023b6004803603602081101561035257600080fd5b50356001600160a01b03166107f7565b61023b610810565b6102f1610819565b6102576004803603602081101561038857600080fd5b50356001600160a01b031661082b565b6102f1600480360360408110156103ae57600080fd5b506001600160a01b038135169060200135610846565b6102f1600480360360208110156103da57600080fd5b50356001600160a01b0316610854565b6102f16108a3565b61019a61096a565b6102f16004803603602081101561041057600080fd5b50356001600160a01b03166109cb565b6102f1610a1a565b61023b6004803603604081101561043e57600080fd5b506001600160a01b038135169060200135610a2a565b61023b6004803603604081101561046a57600080fd5b506001600160a01b038135169060200135610a82565b61023b6004803603602081101561049657600080fd5b50356001600160a01b0316610ada565b610257600480360360408110156104bc57600080fd5b506001600160a01b0381358116916020013516610aed565b60038054604080516020601f60026000196101006001881615020190951694909404938401819004810282018101909252828152606093909290918301828280156105605780601f1061053557610100808354040283529160200191610560565b820191906000526020600020905b81548152906001019060200180831161054357829003601f168201915b5050505050905090565b60085460009060ff16156105b8576040805162461bcd60e51b815260206004820152601060248201526f14185d5cd8589b194e881c185d5cd95960821b604482015290519081900360640190fd5b6105c28383610b18565b9392505050565b60025490565b60085460009060ff161561061d576040805162461bcd60e51b815260206004820152601060248201526f14185d5cd8589b194e881c185d5cd95960821b604482015290519081900360640190fd5b610628848484610b2c565b949350505050565b60055460ff1690565b60085460009060ff1615610687576040805162461bcd60e51b815260206004820152601060248201526f14185d5cd8589b194e881c185d5cd95960821b604482015290519081900360640190fd5b6105c28383610bb9565b6106a161069c610c0d565b6107f7565b6106dc5760405162461bcd60e51b81526004018080602001828103825260308152602001806115036030913960400191505060405180910390fd5b60085460ff16610733576040805162461bcd60e51b815260206004820152601460248201527f5061757361626c653a206e6f7420706175736564000000000000000000000000604482015290519081900360640190fd5b6008805460ff191690557f5db9ee0a495bf2e6ff9c91a7834c1ba4fdd244a5e8aa4e537bd38aeae4b073aa610766610c0d565b604080516001600160a01b039092168252519081900360200190a1565b6000610795610790610c0d565b610ada565b6107d05760405162461bcd60e51b815260040180806020018281038252603081526020018061157b6030913960400191505060405180910390fd5b6107da8383610c11565b50600192915050565b6107f46107ee610c0d565b82610d01565b50565b600061080a60078363ffffffff610dfd16565b92915050565b60085460ff1690565b610829610824610c0d565b610e64565b565b6001600160a01b031660009081526020819052604090205490565b6108508282610eac565b5050565b61085f61069c610c0d565b61089a5760405162461bcd60e51b81526004018080602001828103825260308152602001806115036030913960400191505060405180910390fd5b6107f481610f00565b6108ae61069c610c0d565b6108e95760405162461bcd60e51b81526004018080602001828103825260308152602001806115036030913960400191505060405180910390fd5b60085460ff1615610934576040805162461bcd60e51b815260206004820152601060248201526f14185d5cd8589b194e881c185d5cd95960821b604482015290519081900360640190fd5b6008805460ff191660011790557f62e78cea01bee320cd4e420270b5ea74000d11b0c9f74754ebdbfc544b05a258610766610c0d565b60048054604080516020601f60026000196101006001881615020190951694909404938401819004810282018101909252828152606093909290918301828280156105605780601f1061053557610100808354040283529160200191610560565b6109d6610790610c0d565b610a115760405162461bcd60e51b815260040180806020018281038252603081526020018061157b6030913960400191505060405180910390fd5b6107f481610f48565b610829610a25610c0d565b610f90565b60085460009060ff1615610a78576040805162461bcd60e51b815260206004820152601060248201526f14185d5cd8589b194e881c185d5cd95960821b604482015290519081900360640190fd5b6105c28383610fd8565b60085460009060ff1615610ad0576040805162461bcd60e51b815260206004820152601060248201526f14185d5cd8589b194e881c185d5cd95960821b604482015290519081900360640190fd5b6105c28383611046565b600061080a60068363ffffffff610dfd16565b6001600160a01b03918216600090815260016020908152604080832093909416825291909152205490565b60006107da610b25610c0d565b848461105a565b6000610b39848484611146565b610baf84610b45610c0d565b610baa856040518060600160405280602881526020016115cc602891396001600160a01b038a16600090815260016020526040812090610b83610c0d565b6001600160a01b03168152602081019190915260400160002054919063ffffffff6112a216565b61105a565b5060019392505050565b60006107da610bc6610c0d565b84610baa8560016000610bd7610c0d565b6001600160a01b03908116825260208083019390935260409182016000908120918c16815292529020549063ffffffff61133916565b3390565b6001600160a01b038216610c6c576040805162461bcd60e51b815260206004820152601f60248201527f45524332303a206d696e7420746f20746865207a65726f206164647265737300604482015290519081900360640190fd5b600254610c7f908263ffffffff61133916565b6002556001600160a01b038216600090815260208190526040902054610cab908263ffffffff61133916565b6001600160a01b0383166000818152602081815260408083209490945583518581529351929391927fddf252ad1be2c89b69c2b068fc378daa952ba7f163c4a11628f55a4df523b3ef9281900390910190a35050565b6001600160a01b038216610d465760405162461bcd60e51b815260040180806020018281038252602181526020018061163a6021913960400191505060405180910390fd5b610d89816040518060600160405280602281526020016114e1602291396001600160a01b038516600090815260208190526040902054919063ffffffff6112a216565b6001600160a01b038316600090815260208190526040902055600254610db5908263ffffffff61139316565b6002556040805182815290516000916001600160a01b038516917fddf252ad1be2c89b69c2b068fc378daa952ba7f163c4a11628f55a4df523b3ef9181900360200190a35050565b60006001600160a01b038216610e445760405162461bcd60e51b81526004018080602001828103825260228152602001806115f46022913960400191505060405180910390fd5b506001600160a01b03166000908152602091909152604090205460ff1690565b610e7560078263ffffffff6113d516565b6040516001600160a01b038216907fcd265ebaf09df2871cc7bd4133404a235ba12eff2041bb89d9c714a2621c7c7e90600090a250565b610eb68282610d01565b61085082610ec2610c0d565b610baa84604051806060016040528060248152602001611616602491396001600160a01b038816600090815260016020526040812090610b83610c0d565b610f1160078263ffffffff61143c16565b6040516001600160a01b038216907f6719d08c1888103bea251a4ed56406bd0c3e69723c8a1686e017e7bbe159b6f890600090a250565b610f5960068263ffffffff61143c16565b6040516001600160a01b038216907f6ae172837ea30b801fbfcdd4108aa1d5bf8ff775444fd70256b44e6bf3dfc3f690600090a250565b610fa160068263ffffffff6113d516565b6040516001600160a01b038216907fe94479a9f7e1952cc78f2d6baab678adc1b772d936c6583def489e524cb6669290600090a250565b60006107da610fe5610c0d565b84610baa856040518060600160405280602581526020016116a4602591396001600061100f610c0d565b6001600160a01b03908116825260208083019390935260409182016000908120918d1681529252902054919063ffffffff6112a216565b60006107da611053610c0d565b8484611146565b6001600160a01b03831661109f5760405162461bcd60e51b81526004018080602001828103825260248152602001806116806024913960400191505060405180910390fd5b6001600160a01b0382166110e45760405162461bcd60e51b81526004018080602001828103825260228152602001806115336022913960400191505060405180910390fd5b6001600160a01b03808416600081815260016020908152604080832094871680845294825291829020859055815185815291517f8c5be1e5ebec7d5bd14f71427d1e84f3dd0314c0f7b2291e5b200ac8c7c3b9259281900390910190a3505050565b6001600160a01b03831661118b5760405162461bcd60e51b815260040180806020018281038252602581526020018061165b6025913960400191505060405180910390fd5b6001600160a01b0382166111d05760405162461bcd60e51b81526004018080602001828103825260238152602001806114be6023913960400191505060405180910390fd5b61121381604051806060016040528060268152602001611555602691396001600160a01b038616600090815260208190526040902054919063ffffffff6112a216565b6001600160a01b038085166000908152602081905260408082209390935590841681522054611248908263ffffffff61133916565b6001600160a01b038084166000818152602081815260409182902094909455805185815290519193928716927fddf252ad1be2c89b69c2b068fc378daa952ba7f163c4a11628f55a4df523b3ef92918290030190a3505050565b600081848411156113315760405162461bcd60e51b81526004018080602001828103825283818151815260200191508051906020019080838360005b838110156112f65781810151838201526020016112de565b50505050905090810190601f1680156113235780820380516001836020036101000a031916815260200191505b509250505060405180910390fd5b505050900390565b6000828201838110156105c2576040805162461bcd60e51b815260206004820152601b60248201527f536166654d6174683a206164646974696f6e206f766572666c6f770000000000604482015290519081900360640190fd5b60006105c283836040518060400160405280601e81526020017f536166654d6174683a207375627472616374696f6e206f766572666c6f7700008152506112a2565b6113df8282610dfd565b61141a5760405162461bcd60e51b81526004018080602001828103825260218152602001806115ab6021913960400191505060405180910390fd5b6001600160a01b0316600090815260209190915260409020805460ff19169055565b6114468282610dfd565b15611498576040805162461bcd60e51b815260206004820152601f60248201527f526f6c65733a206163636f756e7420616c72656164792068617320726f6c6500604482015290519081900360640190fd5b6001600160a01b0316600090815260209190915260409020805460ff1916600117905556fe45524332303a207472616e7366657220746f20746865207a65726f206164647265737345524332303a206275726e20616d6f756e7420657863656564732062616c616e6365506175736572526f6c653a2063616c6c657220646f6573206e6f742068617665207468652050617573657220726f6c6545524332303a20617070726f766520746f20746865207a65726f206164647265737345524332303a207472616e7366657220616d6f756e7420657863656564732062616c616e63654d696e746572526f6c653a2063616c6c657220646f6573206e6f74206861766520746865204d696e74657220726f6c65526f6c65733a206163636f756e7420646f6573206e6f74206861766520726f6c6545524332303a207472616e7366657220616d6f756e74206578636565647320616c6c6f77616e6365526f6c65733a206163636f756e7420697320746865207a65726f206164647265737345524332303a206275726e20616d6f756e74206578636565647320616c6c6f77616e636545524332303a206275726e2066726f6d20746865207a65726f206164647265737345524332303a207472616e736665722066726f6d20746865207a65726f206164647265737345524332303a20617070726f76652066726f6d20746865207a65726f206164647265737345524332303a2064656372656173656420616c6c6f77616e63652062656c6f77207a65726fa265627a7a72315820ddbbbe55575586cd9be294e1bc496343c10308818147181688ca9c284a05fc6c64736f6c634300050c0032526f6c65733a206163636f756e7420697320746865207a65726f2061646472657373",
  "source": "pragma solidity 0.5.12;\n\nimport \"@openzeppelin/contracts/token/ERC20/ERC20.sol\";\nimport \"@openzeppelin/contracts/token/ERC20/ERC20Detailed.sol\";\nimport \"@openzeppelin/contracts/token/ERC20/ERC20Burnable.sol\";\nimport \"@openzeppelin/contracts/token/ERC20/ERC20Mintable.sol\";\nimport \"@openzeppelin/contracts/token/ERC20/ERC20Pausable.sol\";\n\ncontract MintyToken is ERC20, ERC20Detailed, ERC20Burnable, ERC20Mintable, ERC20Pausable{\n\n    constructor(string memory name, string memory symbol, uint8 decimals) public ERC20Detailed(name, symbol, decimals) {}\n}",
  "sourcePath": "/home/ryann/Documents/Repos/ChainSafe/react-scratchpad/Contracts/contracts/MintyToken.sol",
  "compiler": {
    "name": "solc",
    "version": "0.5.12+commit.7709ece9.Emscripten.clang",
    "optimizer": true,
    "runs": 999
  },
  "schemaVersion": "2.2.4",
  "updatedAt": "2020-03-09T10:54:12.658Z"
}